{
  "contractName": "BattleBrotherToken",
  "abi": [
    {
      "inputs": [
        {
          "internalType": "string",
          "name": "_name",
          "type": "string"
        },
        {
          "internalType": "string",
          "name": "_symbol",
          "type": "string"
        }
      ],
      "stateMutability": "nonpayable",
      "type": "constructor"
    },
    {
      "anonymous": false,
      "inputs": [
        {
          "indexed": true,
          "internalType": "address",
          "name": "owner",
          "type": "address"
        },
        {
          "indexed": true,
          "internalType": "address",
          "name": "approved",
          "type": "address"
        },
        {
          "indexed": true,
          "internalType": "uint256",
          "name": "tokenId",
          "type": "uint256"
        }
      ],
      "name": "Approval",
      "type": "event"
    },
    {
      "anonymous": false,
      "inputs": [
        {
          "indexed": true,
          "internalType": "address",
          "name": "owner",
          "type": "address"
        },
        {
          "indexed": true,
          "internalType": "address",
          "name": "operator",
          "type": "address"
        },
        {
          "indexed": false,
          "internalType": "bool",
          "name": "approved",
          "type": "bool"
        }
      ],
      "name": "ApprovalForAll",
      "type": "event"
    },
    {
      "anonymous": false,
      "inputs": [
        {
          "indexed": true,
          "internalType": "address",
          "name": "owner",
          "type": "address"
        },
        {
          "indexed": false,
          "internalType": "uint256",
          "name": "id",
          "type": "uint256"
        },
        {
          "indexed": false,
          "internalType": "uint256",
          "name": "dna",
          "type": "uint256"
        }
      ],
      "name": "NewDemon",
      "type": "event"
    },
    {
      "anonymous": false,
      "inputs": [
        {
          "indexed": true,
          "internalType": "address",
          "name": "previousOwner",
          "type": "address"
        },
        {
          "indexed": true,
          "internalType": "address",
          "name": "newOwner",
          "type": "address"
        }
      ],
      "name": "OwnershipTransferred",
      "type": "event"
    },
    {
      "anonymous": false,
      "inputs": [
        {
          "indexed": true,
          "internalType": "address",
          "name": "from",
          "type": "address"
        },
        {
          "indexed": true,
          "internalType": "address",
          "name": "to",
          "type": "address"
        },
        {
          "indexed": true,
          "internalType": "uint256",
          "name": "tokenId",
          "type": "uint256"
        }
      ],
      "name": "Transfer",
      "type": "event"
    },
    {
      "inputs": [
        {
          "internalType": "address",
          "name": "to",
          "type": "address"
        },
        {
          "internalType": "uint256",
          "name": "tokenId",
          "type": "uint256"
        }
      ],
      "name": "approve",
      "outputs": [],
      "stateMutability": "nonpayable",
      "type": "function"
    },
    {
      "inputs": [
        {
          "internalType": "address",
          "name": "owner",
          "type": "address"
        }
      ],
      "name": "balanceOf",
      "outputs": [
        {
          "internalType": "uint256",
          "name": "",
          "type": "uint256"
        }
      ],
      "stateMutability": "view",
      "type": "function",
      "constant": true
    },
    {
      "inputs": [
        {
          "internalType": "uint256",
          "name": "",
          "type": "uint256"
        }
      ],
      "name": "demons",
      "outputs": [
        {
          "internalType": "uint256",
          "name": "id",
          "type": "uint256"
        },
        {
          "internalType": "string",
          "name": "name",
          "type": "string"
        },
        {
          "internalType": "uint256",
          "name": "dna",
          "type": "uint256"
        },
        {
          "internalType": "uint256",
          "name": "level",
          "type": "uint256"
        },
        {
          "internalType": "uint8",
          "name": "rariry",
          "type": "uint8"
        }
      ],
      "stateMutability": "view",
      "type": "function",
      "constant": true
    },
    {
      "inputs": [
        {
          "internalType": "uint256",
          "name": "tokenId",
          "type": "uint256"
        }
      ],
      "name": "getApproved",
      "outputs": [
        {
          "internalType": "address",
          "name": "",
          "type": "address"
        }
      ],
      "stateMutability": "view",
      "type": "function",
      "constant": true
    },
    {
      "inputs": [
        {
          "internalType": "address",
          "name": "owner",
          "type": "address"
        },
        {
          "internalType": "address",
          "name": "operator",
          "type": "address"
        }
      ],
      "name": "isApprovedForAll",
      "outputs": [
        {
          "internalType": "bool",
          "name": "",
          "type": "bool"
        }
      ],
      "stateMutability": "view",
      "type": "function",
      "constant": true
    },
    {
      "inputs": [],
      "name": "name",
      "outputs": [
        {
          "internalType": "string",
          "name": "",
          "type": "string"
        }
      ],
      "stateMutability": "view",
      "type": "function",
      "constant": true
    },
    {
      "inputs": [],
      "name": "owner",
      "outputs": [
        {
          "internalType": "address",
          "name": "",
          "type": "address"
        }
      ],
      "stateMutability": "view",
      "type": "function",
      "constant": true
    },
    {
      "inputs": [
        {
          "internalType": "uint256",
          "name": "tokenId",
          "type": "uint256"
        }
      ],
      "name": "ownerOf",
      "outputs": [
        {
          "internalType": "address",
          "name": "",
          "type": "address"
        }
      ],
      "stateMutability": "view",
      "type": "function",
      "constant": true
    },
    {
      "inputs": [],
      "name": "renounceOwnership",
      "outputs": [],
      "stateMutability": "nonpayable",
      "type": "function"
    },
    {
      "inputs": [
        {
          "internalType": "address",
          "name": "from",
          "type": "address"
        },
        {
          "internalType": "address",
          "name": "to",
          "type": "address"
        },
        {
          "internalType": "uint256",
          "name": "tokenId",
          "type": "uint256"
        }
      ],
      "name": "safeTransferFrom",
      "outputs": [],
      "stateMutability": "nonpayable",
      "type": "function"
    },
    {
      "inputs": [
        {
          "internalType": "address",
          "name": "from",
          "type": "address"
        },
        {
          "internalType": "address",
          "name": "to",
          "type": "address"
        },
        {
          "internalType": "uint256",
          "name": "tokenId",
          "type": "uint256"
        },
        {
          "internalType": "bytes",
          "name": "_data",
          "type": "bytes"
        }
      ],
      "name": "safeTransferFrom",
      "outputs": [],
      "stateMutability": "nonpayable",
      "type": "function"
    },
    {
      "inputs": [
        {
          "internalType": "address",
          "name": "operator",
          "type": "address"
        },
        {
          "internalType": "bool",
          "name": "approved",
          "type": "bool"
        }
      ],
      "name": "setApprovalForAll",
      "outputs": [],
      "stateMutability": "nonpayable",
      "type": "function"
    },
    {
      "inputs": [
        {
          "internalType": "bytes4",
          "name": "interfaceId",
          "type": "bytes4"
        }
      ],
      "name": "supportsInterface",
      "outputs": [
        {
          "internalType": "bool",
          "name": "",
          "type": "bool"
        }
      ],
      "stateMutability": "view",
      "type": "function",
      "constant": true
    },
    {
      "inputs": [],
      "name": "symbol",
      "outputs": [
        {
          "internalType": "string",
          "name": "",
          "type": "string"
        }
      ],
      "stateMutability": "view",
      "type": "function",
      "constant": true
    },
    {
      "inputs": [
        {
          "internalType": "uint256",
          "name": "tokenId",
          "type": "uint256"
        }
      ],
      "name": "tokenURI",
      "outputs": [
        {
          "internalType": "string",
          "name": "",
          "type": "string"
        }
      ],
      "stateMutability": "view",
      "type": "function",
      "constant": true
    },
    {
      "inputs": [
        {
          "internalType": "address",
          "name": "from",
          "type": "address"
        },
        {
          "internalType": "address",
          "name": "to",
          "type": "address"
        },
        {
          "internalType": "uint256",
          "name": "tokenId",
          "type": "uint256"
        }
      ],
      "name": "transferFrom",
      "outputs": [],
      "stateMutability": "nonpayable",
      "type": "function"
    },
    {
      "inputs": [
        {
          "internalType": "address",
          "name": "newOwner",
          "type": "address"
        }
      ],
      "name": "transferOwnership",
      "outputs": [],
      "stateMutability": "nonpayable",
      "type": "function"
    },
    {
      "inputs": [
        {
          "internalType": "uint256",
          "name": "_fee",
          "type": "uint256"
        }
      ],
      "name": "updateFee",
      "outputs": [],
      "stateMutability": "nonpayable",
      "type": "function"
    },
    {
      "inputs": [],
      "name": "withdraw",
      "outputs": [],
      "stateMutability": "payable",
      "type": "function",
      "payable": true
    },
    {
      "inputs": [
        {
          "internalType": "string",
          "name": "_name",
          "type": "string"
        }
      ],
      "name": "createRandomDemon",
      "outputs": [],
      "stateMutability": "payable",
      "type": "function",
      "payable": true
    },
    {
      "inputs": [],
      "name": "getDemons",
      "outputs": [
        {
          "components": [
            {
              "internalType": "uint256",
              "name": "id",
              "type": "uint256"
            },
            {
              "internalType": "string",
              "name": "name",
              "type": "string"
            },
            {
              "internalType": "uint256",
              "name": "dna",
              "type": "uint256"
            },
            {
              "internalType": "uint256",
              "name": "level",
              "type": "uint256"
            },
            {
              "internalType": "uint8",
              "name": "rariry",
              "type": "uint8"
            }
          ],
          "internalType": "struct BattleBrotherToken.Demon[]",
          "name": "",
          "type": "tuple[]"
        }
      ],
      "stateMutability": "view",
      "type": "function",
      "constant": true
    },
    {
      "inputs": [
        {
          "internalType": "address",
          "name": "_owner",
          "type": "address"
        }
      ],
      "name": "getOwnerDemons",
      "outputs": [
        {
          "components": [
            {
              "internalType": "uint256",
              "name": "id",
              "type": "uint256"
            },
            {
              "internalType": "string",
              "name": "name",
              "type": "string"
            },
            {
              "internalType": "uint256",
              "name": "dna",
              "type": "uint256"
            },
            {
              "internalType": "uint256",
              "name": "level",
              "type": "uint256"
            },
            {
              "internalType": "uint8",
              "name": "rariry",
              "type": "uint8"
            }
          ],
          "internalType": "struct BattleBrotherToken.Demon[]",
          "name": "",
          "type": "tuple[]"
        }
      ],
      "stateMutability": "view",
      "type": "function",
      "constant": true
    }
  ],
  "bytecode": "0x608060405266038d7ea4c680006008553480156200001c57600080fd5b50604051620022ad380380620022ad8339810160408190526200003f916200025c565b81518290829062000058906000906020850190620000e9565b5080516200006e906001906020840190620000e9565b5050506200008b620000856200009360201b60201c565b62000097565b505062000303565b3390565b600680546001600160a01b038381166001600160a01b0319831681179093556040519116919082907f8be0079c531659141344cd1fd0a4f28419497f9722a3daafe3b4186f6b6457e090600090a35050565b828054620000f790620002c6565b90600052602060002090601f0160209004810192826200011b576000855562000166565b82601f106200013657805160ff191683800117855562000166565b8280016001018555821562000166579182015b828111156200016657825182559160200191906001019062000149565b506200017492915062000178565b5090565b5b8082111562000174576000815560010162000179565b634e487b7160e01b600052604160045260246000fd5b600082601f830112620001b757600080fd5b81516001600160401b0380821115620001d457620001d46200018f565b604051601f8301601f19908116603f01168101908282118183101715620001ff57620001ff6200018f565b816040528381526020925086838588010111156200021c57600080fd5b600091505b8382101562000240578582018301518183018401529082019062000221565b83821115620002525760008385830101525b9695505050505050565b600080604083850312156200027057600080fd5b82516001600160401b03808211156200028857600080fd5b6200029686838701620001a5565b93506020850151915080821115620002ad57600080fd5b50620002bc85828601620001a5565b9150509250929050565b600181811c90821680620002db57607f821691505b60208210811415620002fd57634e487b7160e01b600052602260045260246000fd5b50919050565b611f9a80620003136000396000f3fe6080604052600436106101355760003560e01c806370a08231116100ab57806395d89b411161006f57806395d89b411461035a578063a22cb4651461036f578063b88d4fde1461038f578063c87b56dd146103af578063e985e9c5146103cf578063f2fde38b1461041857600080fd5b806370a08231146102b9578063715018a6146102e75780637b08c222146102fc5780638da5cb5b1461031c5780639012c4a81461033a57600080fd5b8063199f1e60116100fd578063199f1e601461021c57806323b872dd1461022f5780633ccfd60b1461024f57806342842e0e1461025757806353102db0146102775780636352211e1461029957600080fd5b806301ffc9a71461013a578063042df1b11461016f57806306fdde03146101a0578063081812fc146101c2578063095ea7b3146101fa575b600080fd5b34801561014657600080fd5b5061015a610155366004611945565b610438565b60405190151581526020015b60405180910390f35b34801561017b57600080fd5b5061018f61018a366004611962565b61048a565b6040516101669594939291906119d3565b3480156101ac57600080fd5b506101b5610559565b6040516101669190611a0c565b3480156101ce57600080fd5b506101e26101dd366004611962565b6105eb565b6040516001600160a01b039091168152602001610166565b34801561020657600080fd5b5061021a610215366004611a3b565b610685565b005b61021a61022a366004611af1565b61079b565b34801561023b57600080fd5b5061021a61024a366004611b3a565b6107f8565b61021a610829565b34801561026357600080fd5b5061021a610272366004611b3a565b6108a3565b34801561028357600080fd5b5061028c6108be565b6040516101669190611b76565b3480156102a557600080fd5b506101e26102b4366004611962565b6109e0565b3480156102c557600080fd5b506102d96102d4366004611c0e565b610a57565b604051908152602001610166565b3480156102f357600080fd5b5061021a610ade565b34801561030857600080fd5b5061028c610317366004611c0e565b610b14565b34801561032857600080fd5b506006546001600160a01b03166101e2565b34801561034657600080fd5b5061021a610355366004611962565b610d05565b34801561036657600080fd5b506101b5610d34565b34801561037b57600080fd5b5061021a61038a366004611c29565b610d43565b34801561039b57600080fd5b5061021a6103aa366004611c65565b610e08565b3480156103bb57600080fd5b506101b56103ca366004611962565b610e40565b3480156103db57600080fd5b5061015a6103ea366004611ce1565b6001600160a01b03918216600090815260056020908152604080832093909416825291909152205460ff1690565b34801561042457600080fd5b5061021a610433366004611c0e565b610f28565b60006001600160e01b031982166380ac58cd60e01b148061046957506001600160e01b03198216635b5e139f60e01b145b8061048457506301ffc9a760e01b6001600160e01b03198316145b92915050565b6009818154811061049a57600080fd5b600091825260209091206005909102018054600182018054919350906104bf90611d14565b80601f01602080910402602001604051908101604052809291908181526020018280546104eb90611d14565b80156105385780601f1061050d57610100808354040283529160200191610538565b820191906000526020600020905b81548152906001019060200180831161051b57829003601f168201915b50505050600283015460038401546004909401549293909290915060ff1685565b60606000805461056890611d14565b80601f016020809104026020016040519081016040528092919081815260200182805461059490611d14565b80156105e15780601f106105b6576101008083540402835291602001916105e1565b820191906000526020600020905b8154815290600101906020018083116105c457829003601f168201915b5050505050905090565b6000818152600260205260408120546001600160a01b03166106695760405162461bcd60e51b815260206004820152602c60248201527f4552433732313a20617070726f76656420717565727920666f72206e6f6e657860448201526b34b9ba32b73a103a37b5b2b760a11b60648201526084015b60405180910390fd5b506000908152600460205260409020546001600160a01b031690565b6000610690826109e0565b9050806001600160a01b0316836001600160a01b031614156106fe5760405162461bcd60e51b815260206004820152602160248201527f4552433732313a20617070726f76616c20746f2063757272656e74206f776e656044820152603960f91b6064820152608401610660565b336001600160a01b038216148061071a575061071a81336103ea565b61078c5760405162461bcd60e51b815260206004820152603860248201527f4552433732313a20617070726f76652063616c6c6572206973206e6f74206f7760448201527f6e6572206e6f7220617070726f76656420666f7220616c6c00000000000000006064820152608401610660565b6107968383610fc0565b505050565b60085434146107ec5760405162461bcd60e51b815260206004820152601e60248201527f5573657220646f65736e2774206861766520656e6f756768206d6f6e657900006044820152606401610660565b6107f58161102e565b50565b610802338261118b565b61081e5760405162461bcd60e51b815260040161066090611d4f565b610796838383611282565b6006546001600160a01b031633146108535760405162461bcd60e51b815260040161066090611da0565b60006108676006546001600160a01b031690565b6040519091506001600160a01b038216904780156108fc02916000818181858888f1935050505015801561089f573d6000803e3d6000fd5b5050565b61079683838360405180602001604052806000815250610e08565b60606009805480602002602001604051908101604052809291908181526020016000905b828210156109d757838290600052602060002090600502016040518060a00160405290816000820154815260200160018201805461091f90611d14565b80601f016020809104026020016040519081016040528092919081815260200182805461094b90611d14565b80156109985780601f1061096d57610100808354040283529160200191610998565b820191906000526020600020905b81548152906001019060200180831161097b57829003601f168201915b505050918352505060028201546020808301919091526003830154604083015260049092015460ff1660609091015290825260019290920191016108e2565b50505050905090565b6000818152600260205260408120546001600160a01b0316806104845760405162461bcd60e51b815260206004820152602960248201527f4552433732313a206f776e657220717565727920666f72206e6f6e657869737460448201526832b73a103a37b5b2b760b91b6064820152608401610660565b60006001600160a01b038216610ac25760405162461bcd60e51b815260206004820152602a60248201527f4552433732313a2062616c616e636520717565727920666f7220746865207a65604482015269726f206164647265737360b01b6064820152608401610660565b506001600160a01b031660009081526003602052604090205490565b6006546001600160a01b03163314610b085760405162461bcd60e51b815260040161066090611da0565b610b126000611422565b565b60606000610b2183610a57565b67ffffffffffffffff811115610b3957610b39611a65565b604051908082528060200260200182016040528015610b9f57816020015b610b8c6040518060a0016040528060008152602001606081526020016000815260200160008152602001600060ff1681525090565b815260200190600190039081610b575790505b5090506000805b600954811015610cfc57846001600160a01b0316610bc3826109e0565b6001600160a01b03161415610cea5760098181548110610be557610be5611dd5565b90600052602060002090600502016040518060a001604052908160008201548152602001600182018054610c1890611d14565b80601f0160208091040260200160405190810160405280929190818152602001828054610c4490611d14565b8015610c915780601f10610c6657610100808354040283529160200191610c91565b820191906000526020600020905b815481529060010190602001808311610c7457829003601f168201915b5050509183525050600282015460208201526003820154604082015260049091015460ff166060909101528351849084908110610cd057610cd0611dd5565b60200260200101819052508180610ce690611e01565b9250505b80610cf481611e01565b915050610ba6565b50909392505050565b6006546001600160a01b03163314610d2f5760405162461bcd60e51b815260040161066090611da0565b600855565b60606001805461056890611d14565b6001600160a01b038216331415610d9c5760405162461bcd60e51b815260206004820152601960248201527f4552433732313a20617070726f766520746f2063616c6c6572000000000000006044820152606401610660565b3360008181526005602090815260408083206001600160a01b03871680855290835292819020805460ff191686151590811790915590519081529192917f17307eab39ab6107e8899845ad3d59bd9653f200f220920489ca2b5937696c31910160405180910390a35050565b610e12338361118b565b610e2e5760405162461bcd60e51b815260040161066090611d4f565b610e3a84848484611474565b50505050565b6000818152600260205260409020546060906001600160a01b0316610ebf5760405162461bcd60e51b815260206004820152602f60248201527f4552433732314d657461646174613a2055524920717565727920666f72206e6f60448201526e3732bc34b9ba32b73a103a37b5b2b760891b6064820152608401610660565b6000610ed660408051602081019091526000815290565b90506000815111610ef65760405180602001604052806000815250610f21565b80610f00846114a7565b604051602001610f11929190611e1c565b6040516020818303038152906040525b9392505050565b6006546001600160a01b03163314610f525760405162461bcd60e51b815260040161066090611da0565b6001600160a01b038116610fb75760405162461bcd60e51b815260206004820152602660248201527f4f776e61626c653a206e6577206f776e657220697320746865207a65726f206160448201526564647265737360d01b6064820152608401610660565b6107f581611422565b600081815260046020526040902080546001600160a01b0319166001600160a01b0384169081179091558190610ff5826109e0565b6001600160a01b03167f8c5be1e5ebec7d5bd14f71427d1e84f3dd0314c0f7b2291e5b200ac8c7c3b92560405160405180910390a45050565b600061103a60646115a5565b9050600061104e662386f26fc100006115a5565b6040805160a0810182526007548152602080820187815292820184905260016060830181905260ff87166080840152600980549182018155600052825160059091027f6e1540171b6c0c960b71a7020d9f60077f6af931a8bbf590da0223dacf75c7af8101918255935180519596509294859491936110f3937f6e1540171b6c0c960b71a7020d9f60077f6af931a8bbf590da0223dacf75c7b0909301920190611896565b5060408201516002820155606082015160038201556080909101516004909101805460ff191660ff9092169190911790556007546111329033906115fa565b600754604080519182526020820184905233917ffb32b1fe7bb81ee4f749820b417b4a72a5f9cc950aa8e8b61982af799944a552910160405180910390a26007805490600061118083611e01565b919050555050505050565b6000818152600260205260408120546001600160a01b03166112045760405162461bcd60e51b815260206004820152602c60248201527f4552433732313a206f70657261746f7220717565727920666f72206e6f6e657860448201526b34b9ba32b73a103a37b5b2b760a11b6064820152608401610660565b600061120f836109e0565b9050806001600160a01b0316846001600160a01b0316148061124a5750836001600160a01b031661123f846105eb565b6001600160a01b0316145b8061127a57506001600160a01b0380821660009081526005602090815260408083209388168352929052205460ff165b949350505050565b826001600160a01b0316611295826109e0565b6001600160a01b0316146112fd5760405162461bcd60e51b815260206004820152602960248201527f4552433732313a207472616e73666572206f6620746f6b656e2074686174206960448201526839903737ba1037bbb760b91b6064820152608401610660565b6001600160a01b03821661135f5760405162461bcd60e51b8152602060048201526024808201527f4552433732313a207472616e7366657220746f20746865207a65726f206164646044820152637265737360e01b6064820152608401610660565b61136a600082610fc0565b6001600160a01b0383166000908152600360205260408120805460019290611393908490611e4b565b90915550506001600160a01b03821660009081526003602052604081208054600192906113c1908490611e62565b909155505060008181526002602052604080822080546001600160a01b0319166001600160a01b0386811691821790925591518493918716917fddf252ad1be2c89b69c2b068fc378daa952ba7f163c4a11628f55a4df523b3ef91a4505050565b600680546001600160a01b038381166001600160a01b0319831681179093556040519116919082907f8be0079c531659141344cd1fd0a4f28419497f9722a3daafe3b4186f6b6457e090600090a35050565b61147f848484611282565b61148b84848484611614565b610e3a5760405162461bcd60e51b815260040161066090611e7a565b6060816114cb5750506040805180820190915260018152600360fc1b602082015290565b8160005b81156114f557806114df81611e01565b91506114ee9050600a83611ee2565b91506114cf565b60008167ffffffffffffffff81111561151057611510611a65565b6040519080825280601f01601f19166020018201604052801561153a576020820181803683370190505b5090505b841561127a5761154f600183611e4b565b915061155c600a86611ef6565b611567906030611e62565b60f81b81838151811061157c5761157c611dd5565b60200101906001600160f81b031916908160001a90535061159e600a86611ee2565b945061153e565b60008042336040516020016115d692919091825260601b6bffffffffffffffffffffffff1916602082015260340190565b60408051601f1981840301815291905280516020909101209050610f218382611ef6565b61089f828260405180602001604052806000815250611721565b60006001600160a01b0384163b1561171657604051630a85bd0160e11b81526001600160a01b0385169063150b7a0290611658903390899088908890600401611f0a565b602060405180830381600087803b15801561167257600080fd5b505af19250505080156116a2575060408051601f3d908101601f1916820190925261169f91810190611f47565b60015b6116fc573d8080156116d0576040519150601f19603f3d011682016040523d82523d6000602084013e6116d5565b606091505b5080516116f45760405162461bcd60e51b815260040161066090611e7a565b805181602001fd5b6001600160e01b031916630a85bd0160e11b14905061127a565b506001949350505050565b61172b8383611754565b6117386000848484611614565b6107965760405162461bcd60e51b815260040161066090611e7a565b6001600160a01b0382166117aa5760405162461bcd60e51b815260206004820181905260248201527f4552433732313a206d696e7420746f20746865207a65726f20616464726573736044820152606401610660565b6000818152600260205260409020546001600160a01b03161561180f5760405162461bcd60e51b815260206004820152601c60248201527f4552433732313a20746f6b656e20616c7265616479206d696e746564000000006044820152606401610660565b6001600160a01b0382166000908152600360205260408120805460019290611838908490611e62565b909155505060008181526002602052604080822080546001600160a01b0319166001600160a01b03861690811790915590518392907fddf252ad1be2c89b69c2b068fc378daa952ba7f163c4a11628f55a4df523b3ef908290a45050565b8280546118a290611d14565b90600052602060002090601f0160209004810192826118c4576000855561190a565b82601f106118dd57805160ff191683800117855561190a565b8280016001018555821561190a579182015b8281111561190a5782518255916020019190600101906118ef565b5061191692915061191a565b5090565b5b80821115611916576000815560010161191b565b6001600160e01b0319811681146107f557600080fd5b60006020828403121561195757600080fd5b8135610f218161192f565b60006020828403121561197457600080fd5b5035919050565b60005b8381101561199657818101518382015260200161197e565b83811115610e3a5750506000910152565b600081518084526119bf81602086016020860161197b565b601f01601f19169290920160200192915050565b85815260a0602082015260006119ec60a08301876119a7565b604083019590955250606081019290925260ff1660809091015292915050565b602081526000610f2160208301846119a7565b80356001600160a01b0381168114611a3657600080fd5b919050565b60008060408385031215611a4e57600080fd5b611a5783611a1f565b946020939093013593505050565b634e487b7160e01b600052604160045260246000fd5b600067ffffffffffffffff80841115611a9657611a96611a65565b604051601f8501601f19908116603f01168101908282118183101715611abe57611abe611a65565b81604052809350858152868686011115611ad757600080fd5b858560208301376000602087830101525050509392505050565b600060208284031215611b0357600080fd5b813567ffffffffffffffff811115611b1a57600080fd5b8201601f81018413611b2b57600080fd5b61127a84823560208401611a7b565b600080600060608486031215611b4f57600080fd5b611b5884611a1f565b9250611b6660208501611a1f565b9150604084013590509250925092565b60006020808301818452808551808352604092508286019150828160051b87010184880160005b83811015611c0057603f19898403018552815160a08151855288820151818a870152611bcb828701826119a7565b838a0151878b01526060808501519088015260809384015160ff16939096019290925250509386019390860190600101611b9d565b509098975050505050505050565b600060208284031215611c2057600080fd5b610f2182611a1f565b60008060408385031215611c3c57600080fd5b611c4583611a1f565b915060208301358015158114611c5a57600080fd5b809150509250929050565b60008060008060808587031215611c7b57600080fd5b611c8485611a1f565b9350611c9260208601611a1f565b925060408501359150606085013567ffffffffffffffff811115611cb557600080fd5b8501601f81018713611cc657600080fd5b611cd587823560208401611a7b565b91505092959194509250565b60008060408385031215611cf457600080fd5b611cfd83611a1f565b9150611d0b60208401611a1f565b90509250929050565b600181811c90821680611d2857607f821691505b60208210811415611d4957634e487b7160e01b600052602260045260246000fd5b50919050565b60208082526031908201527f4552433732313a207472616e736665722063616c6c6572206973206e6f74206f6040820152701ddb995c881b9bdc88185c1c1c9bdd9959607a1b606082015260800190565b6020808252818101527f4f776e61626c653a2063616c6c6572206973206e6f7420746865206f776e6572604082015260600190565b634e487b7160e01b600052603260045260246000fd5b634e487b7160e01b600052601160045260246000fd5b6000600019821415611e1557611e15611deb565b5060010190565b60008351611e2e81846020880161197b565b835190830190611e4281836020880161197b565b01949350505050565b600082821015611e5d57611e5d611deb565b500390565b60008219821115611e7557611e75611deb565b500190565b60208082526032908201527f4552433732313a207472616e7366657220746f206e6f6e20455243373231526560408201527131b2b4bb32b91034b6b83632b6b2b73a32b960711b606082015260800190565b634e487b7160e01b600052601260045260246000fd5b600082611ef157611ef1611ecc565b500490565b600082611f0557611f05611ecc565b500690565b6001600160a01b0385811682528416602082015260408101839052608060608201819052600090611f3d908301846119a7565b9695505050505050565b600060208284031215611f5957600080fd5b8151610f218161192f56fea2646970667358221220f44a8ba50c65e9c02a89a5d102c3a965330c60d4134ea3a384dc90fc0d60e52864736f6c63430008090033",
  "immutableReferences": {},
  "source": "// SPDX-License-Identifier: MIT\n\npragma solidity ^0.8.9;\n\nimport \"@openzeppelin/contracts/token/ERC721/ERC721.sol\"; \nimport \"@openzeppelin/contracts/access/Ownable.sol\";\n\ncontract BattleBrotherToken is ERC721, Ownable {\n    uint256 COUNTER;\n    \n    uint256 fee = 0.001 ether;\n    \n    struct Demon {\n        uint256 id;\n        string name;\n        uint256 dna; // random generated id\n        uint256 level;\n        uint8 rariry;\n    }\n    \n    Demon[] public demons;\n    \n    event NewDemon(address indexed owner, uint256 id, uint256 dna);\n    \n    //helper \n    function _createRandomNum(uint256 _mod) internal view returns(uint256) {\n        uint256 randomNum = uint256(keccak256(abi.encodePacked(block.timestamp, msg.sender)));\n        return randomNum % _mod;\n    }\n    \n    function updateFee(uint256 _fee) external onlyOwner() {\n        fee = _fee;\n    }\n    \n    function withdraw() external payable onlyOwner() {\n        address payable _owner = payable(owner());\n        _owner.transfer(address(this).balance);\n    }\n    \n    constructor(string memory _name, string memory _symbol)\n        ERC721(_name, _symbol)\n    {}\n    \n    function _createDemon(string memory _name) internal {\n        uint8 randRarity = uint8(_createRandomNum(100));\n        uint256 ranDNA = _createRandomNum(10**16);\n        Demon memory newDemon = Demon(COUNTER, _name, ranDNA, 1, randRarity);\n        demons.push(newDemon);\n        _safeMint(msg.sender, COUNTER);\n        emit NewDemon(msg.sender, COUNTER, ranDNA);\n        COUNTER++;\n    }\n    \n    function createRandomDemon(string memory _name) public payable {\n        require(msg.value == fee, \"User doesn't have enough money\");\n        _createDemon(_name);\n    }\n    \n    function getDemons() public view returns(Demon[] memory) {\n        return demons;\n    }\n\n    function getOwnerDemons(address _owner) public view returns (Demon[] memory) {\n        Demon[] memory result = new Demon[](balanceOf(_owner));\n        uint256 counter = 0;\n        for(uint256 i = 0; i < demons.length; i++) {\n            if(ownerOf(i) == _owner) {\n                result[counter] = demons[i];\n                counter++;\n            }\n        }\n        return result;\n    }\n}",
  "sourcePath": "/Users/nattaaekwattanuyan/Downloads/BattleBrother/contracts/BattleBrotherToken.sol",
  "compiler": {
    "name": "solc",
    "version": "0.8.9+commit.e5eed63a.Emscripten.clang"
  },
  "schemaVersion": "3.4.3",
  "updatedAt": "2021-10-17T09:22:12.447Z",
  "networkType": "ethereum",
  "devdoc": {
    "kind": "dev",
    "methods": {
      "approve(address,uint256)": {
        "details": "See {IERC721-approve}."
      },
      "balanceOf(address)": {
        "details": "See {IERC721-balanceOf}."
      },
      "getApproved(uint256)": {
        "details": "See {IERC721-getApproved}."
      },
      "isApprovedForAll(address,address)": {
        "details": "See {IERC721-isApprovedForAll}."
      },
      "name()": {
        "details": "See {IERC721Metadata-name}."
      },
      "owner()": {
        "details": "Returns the address of the current owner."
      },
      "ownerOf(uint256)": {
        "details": "See {IERC721-ownerOf}."
      },
      "renounceOwnership()": {
        "details": "Leaves the contract without owner. It will not be possible to call `onlyOwner` functions anymore. Can only be called by the current owner. NOTE: Renouncing ownership will leave the contract without an owner, thereby removing any functionality that is only available to the owner."
      },
      "safeTransferFrom(address,address,uint256)": {
        "details": "See {IERC721-safeTransferFrom}."
      },
      "safeTransferFrom(address,address,uint256,bytes)": {
        "details": "See {IERC721-safeTransferFrom}."
      },
      "setApprovalForAll(address,bool)": {
        "details": "See {IERC721-setApprovalForAll}."
      },
      "supportsInterface(bytes4)": {
        "details": "See {IERC165-supportsInterface}."
      },
      "symbol()": {
        "details": "See {IERC721Metadata-symbol}."
      },
      "tokenURI(uint256)": {
        "details": "See {IERC721Metadata-tokenURI}."
      },
      "transferFrom(address,address,uint256)": {
        "details": "See {IERC721-transferFrom}."
      },
      "transferOwnership(address)": {
        "details": "Transfers ownership of the contract to a new account (`newOwner`). Can only be called by the current owner."
      }
    },
    "version": 1
  },
  "userdoc": {
    "kind": "user",
    "methods": {},
    "version": 1
  }
}